{
  "contractName": "Dryb",
  "abi": [
    {
      "constant": true,
      "inputs": [],
      "name": "baseFare",
      "outputs": [
        {
          "name": "",
          "type": "uint256"
        }
      ],
      "payable": false,
      "stateMutability": "view",
      "type": "function"
    },
    {
      "constant": true,
      "inputs": [
        {
          "name": "",
          "type": "uint256"
        }
      ],
      "name": "adminList",
      "outputs": [
        {
          "name": "",
          "type": "address"
        }
      ],
      "payable": false,
      "stateMutability": "view",
      "type": "function"
    },
    {
      "constant": true,
      "inputs": [],
      "name": "pricePerKm",
      "outputs": [
        {
          "name": "",
          "type": "uint256"
        }
      ],
      "payable": false,
      "stateMutability": "view",
      "type": "function"
    },
    {
      "constant": true,
      "inputs": [
        {
          "name": "",
          "type": "uint256"
        }
      ],
      "name": "rideList",
      "outputs": [
        {
          "name": "",
          "type": "bytes32"
        }
      ],
      "payable": false,
      "stateMutability": "view",
      "type": "function"
    },
    {
      "constant": true,
      "inputs": [
        {
          "name": "",
          "type": "uint256"
        }
      ],
      "name": "approverList",
      "outputs": [
        {
          "name": "",
          "type": "address"
        }
      ],
      "payable": false,
      "stateMutability": "view",
      "type": "function"
    },
    {
      "constant": true,
      "inputs": [
        {
          "name": "",
          "type": "uint256"
        }
      ],
      "name": "driverList",
      "outputs": [
        {
          "name": "",
          "type": "address"
        }
      ],
      "payable": false,
      "stateMutability": "view",
      "type": "function"
    },
    {
      "constant": true,
      "inputs": [],
      "name": "pricePerMinute",
      "outputs": [
        {
          "name": "",
          "type": "uint256"
        }
      ],
      "payable": false,
      "stateMutability": "view",
      "type": "function"
    },
    {
      "inputs": [],
      "payable": false,
      "stateMutability": "nonpayable",
      "type": "constructor"
    },
    {
      "anonymous": false,
      "inputs": [
        {
          "indexed": false,
          "name": "admin",
          "type": "address"
        },
        {
          "indexed": false,
          "name": "message",
          "type": "string"
        },
        {
          "indexed": false,
          "name": "from",
          "type": "uint256"
        },
        {
          "indexed": false,
          "name": "to",
          "type": "uint256"
        },
        {
          "indexed": false,
          "name": "date",
          "type": "uint256"
        }
      ],
      "name": "FareChanged",
      "type": "event"
    },
    {
      "anonymous": false,
      "inputs": [
        {
          "indexed": false,
          "name": "",
          "type": "address"
        },
        {
          "indexed": false,
          "name": "",
          "type": "string"
        },
        {
          "indexed": false,
          "name": "",
          "type": "address"
        },
        {
          "indexed": false,
          "name": "",
          "type": "string"
        },
        {
          "indexed": false,
          "name": "",
          "type": "string"
        },
        {
          "indexed": false,
          "name": "",
          "type": "uint256"
        }
      ],
      "name": "DriverAdded",
      "type": "event"
    },
    {
      "constant": false,
      "inputs": [
        {
          "name": "_address",
          "type": "address"
        },
        {
          "name": "name",
          "type": "string"
        }
      ],
      "name": "addAdmin",
      "outputs": [
        {
          "name": "success",
          "type": "bool"
        }
      ],
      "payable": false,
      "stateMutability": "nonpayable",
      "type": "function"
    },
    {
      "constant": true,
      "inputs": [],
      "name": "getAdmins",
      "outputs": [
        {
          "name": "",
          "type": "address[]"
        }
      ],
      "payable": false,
      "stateMutability": "view",
      "type": "function"
    },
    {
      "constant": false,
      "inputs": [
        {
          "name": "_address",
          "type": "address"
        },
        {
          "name": "name",
          "type": "string"
        }
      ],
      "name": "addApprover",
      "outputs": [
        {
          "name": "success",
          "type": "bool"
        }
      ],
      "payable": false,
      "stateMutability": "nonpayable",
      "type": "function"
    },
    {
      "constant": true,
      "inputs": [],
      "name": "getApprovers",
      "outputs": [
        {
          "name": "",
          "type": "address[]"
        }
      ],
      "payable": false,
      "stateMutability": "view",
      "type": "function"
    },
    {
      "constant": false,
      "inputs": [
        {
          "name": "fare",
          "type": "uint256"
        }
      ],
      "name": "setBaseFare",
      "outputs": [
        {
          "name": "success",
          "type": "bool"
        }
      ],
      "payable": false,
      "stateMutability": "nonpayable",
      "type": "function"
    },
    {
      "constant": false,
      "inputs": [
        {
          "name": "price",
          "type": "uint256"
        }
      ],
      "name": "setPricePerMinute",
      "outputs": [
        {
          "name": "success",
          "type": "bool"
        }
      ],
      "payable": false,
      "stateMutability": "nonpayable",
      "type": "function"
    },
    {
      "constant": false,
      "inputs": [
        {
          "name": "price",
          "type": "uint256"
        }
      ],
      "name": "setPricePerKM",
      "outputs": [
        {
          "name": "success",
          "type": "bool"
        }
      ],
      "payable": false,
      "stateMutability": "nonpayable",
      "type": "function"
    },
    {
      "constant": false,
      "inputs": [
        {
          "name": "driverAddress",
          "type": "address"
        },
        {
          "name": "firstname",
          "type": "string"
        },
        {
          "name": "lastname",
          "type": "string"
        }
      ],
      "name": "addDriver",
      "outputs": [
        {
          "name": "success",
          "type": "bool"
        }
      ],
      "payable": false,
      "stateMutability": "nonpayable",
      "type": "function"
    },
    {
      "constant": false,
      "inputs": [
        {
          "name": "driverAddress",
          "type": "address"
        }
      ],
      "name": "verifyDriver",
      "outputs": [
        {
          "name": "success",
          "type": "bool"
        }
      ],
      "payable": false,
      "stateMutability": "nonpayable",
      "type": "function"
    },
    {
      "constant": true,
      "inputs": [
        {
          "name": "_address",
          "type": "address"
        }
      ],
      "name": "getDriver",
      "outputs": [
        {
          "name": "",
          "type": "address"
        },
        {
          "name": "",
          "type": "string"
        },
        {
          "name": "",
          "type": "string"
        },
        {
          "name": "",
          "type": "string"
        },
        {
          "name": "",
          "type": "string"
        },
        {
          "name": "",
          "type": "bool"
        }
      ],
      "payable": false,
      "stateMutability": "view",
      "type": "function"
    },
    {
      "constant": true,
      "inputs": [],
      "name": "getDrivers",
      "outputs": [
        {
          "name": "",
          "type": "address[]"
        }
      ],
      "payable": false,
      "stateMutability": "view",
      "type": "function"
    },
    {
      "constant": true,
      "inputs": [],
      "name": "getEarnings",
      "outputs": [
        {
          "name": "",
          "type": "uint256"
        }
      ],
      "payable": false,
      "stateMutability": "view",
      "type": "function"
    },
    {
      "constant": false,
      "inputs": [
        {
          "name": "_address",
          "type": "address"
        },
        {
          "name": "name",
          "type": "string"
        },
        {
          "name": "mobile",
          "type": "string"
        }
      ],
      "name": "addPassenger",
      "outputs": [
        {
          "name": "success",
          "type": "bool"
        }
      ],
      "payable": false,
      "stateMutability": "nonpayable",
      "type": "function"
    },
    {
      "constant": true,
      "inputs": [
        {
          "name": "_address",
          "type": "address"
        }
      ],
      "name": "getPassenger",
      "outputs": [
        {
          "name": "",
          "type": "address"
        },
        {
          "name": "",
          "type": "string"
        },
        {
          "name": "",
          "type": "string"
        },
        {
          "name": "",
          "type": "bool"
        }
      ],
      "payable": false,
      "stateMutability": "view",
      "type": "function"
    },
    {
      "constant": true,
      "inputs": [],
      "name": "getPassengers",
      "outputs": [
        {
          "name": "",
          "type": "address[]"
        }
      ],
      "payable": false,
      "stateMutability": "view",
      "type": "function"
    },
    {
      "constant": false,
      "inputs": [
        {
          "name": "rideId",
          "type": "bytes32"
        },
        {
          "name": "driver",
          "type": "address"
        },
        {
          "name": "passenger",
          "type": "address"
        }
      ],
      "name": "createRide",
      "outputs": [
        {
          "name": "success",
          "type": "bool"
        }
      ],
      "payable": false,
      "stateMutability": "nonpayable",
      "type": "function"
    },
    {
      "constant": false,
      "inputs": [
        {
          "name": "rideId",
          "type": "bytes32"
        },
        {
          "name": "distance",
          "type": "uint256"
        },
        {
          "name": "time",
          "type": "uint256"
        }
      ],
      "name": "computeFare",
      "outputs": [
        {
          "name": "fare",
          "type": "uint256"
        }
      ],
      "payable": false,
      "stateMutability": "nonpayable",
      "type": "function"
    },
    {
      "constant": false,
      "inputs": [
        {
          "name": "rideId",
          "type": "bytes32"
        }
      ],
      "name": "cancelRide",
      "outputs": [
        {
          "name": "success",
          "type": "bool"
        }
      ],
      "payable": false,
      "stateMutability": "nonpayable",
      "type": "function"
    },
    {
      "constant": false,
      "inputs": [
        {
          "name": "rideId",
          "type": "bytes32"
        },
        {
          "name": "price",
          "type": "uint256"
        }
      ],
      "name": "payRide",
      "outputs": [
        {
          "name": "success",
          "type": "bool"
        },
        {
          "name": "change",
          "type": "uint256"
        }
      ],
      "payable": false,
      "stateMutability": "nonpayable",
      "type": "function"
    }
  ],
  "bytecode": "0x606060405234156200001057600080fd5b336000806101000a81548173ffffffffffffffffffffffffffffffffffffffff021916908373ffffffffffffffffffffffffffffffffffffffff1602179055506019600581905550600560068190555060026007819055506060604051908101604052806000809054906101000a900473ffffffffffffffffffffffffffffffffffffffff1673ffffffffffffffffffffffffffffffffffffffff1681526020016040805190810160405280600581526020017f41646d696e000000000000000000000000000000000000000000000000000000815250815260200142815250600160008060009054906101000a900473ffffffffffffffffffffffffffffffffffffffff1673ffffffffffffffffffffffffffffffffffffffff1673ffffffffffffffffffffffffffffffffffffffff16815260200190815260200160002060008201518160000160006101000a81548173ffffffffffffffffffffffffffffffffffffffff021916908373ffffffffffffffffffffffffffffffffffffffff1602179055506020820151816001019080519060200190620001b59291906200024f565b506040820151816002015590505060028054806001018281620001d99190620002d6565b916000526020600020900160008060009054906101000a900473ffffffffffffffffffffffffffffffffffffffff16909190916101000a81548173ffffffffffffffffffffffffffffffffffffffff021916908373ffffffffffffffffffffffffffffffffffffffff160217905550506200032d565b828054600181600116156101000203166002900490600052602060002090601f016020900481019282601f106200029257805160ff1916838001178555620002c3565b82800160010185558215620002c3579182015b82811115620002c2578251825591602001919060010190620002a5565b5b509050620002d2919062000305565b5090565b8154818355818115116200030057818360005260206000209182019101620002ff919062000305565b5b505050565b6200032a91905b80821115620003265760008160009055506001016200030c565b5090565b90565b6136f4806200033d6000396000f300606060405260043610610154576000357c0100000000000000000000000000000000000000000000000000000000900463ffffffff1680630b506b01146101595780630e6a6d1f1461018257806311117fc8146101cf578063158efb641461023257806331ae450b1461025b5780634343b9e4146102c557806346def0d81461032f5780635f0a05291461037e57806362112d7a146103b957806365c301ab146104905780636ac23fdc146106c45780636cb3e8ef1461072e5780637213c5e0146107985780638ab3f4cc146107d7578063906662321461083a57806394ffb8191461086357806398a3f6c6146108f75780639f05fda91461095a578063b684f7bc146109d7578063c8f891a014610a16578063d16856ca14610a51578063dd3001e214610ae5578063e8413cf014610b20578063e8b7464b14610c7c578063f9550dcd14610ca5578063fd096d5914610d7c575b600080fd5b341561016457600080fd5b61016c610dcd565b6040518082815260200191505060405180910390f35b341561018d57600080fd5b6101b9600480803560001916906020019091908035906020019091908035906020019091905050610dd3565b6040518082815260200191505060405180910390f35b34156101da57600080fd5b6101f06004808035906020019091905050610f12565b604051808273ffffffffffffffffffffffffffffffffffffffff1673ffffffffffffffffffffffffffffffffffffffff16815260200191505060405180910390f35b341561023d57600080fd5b610245610f51565b6040518082815260200191505060405180910390f35b341561026657600080fd5b61026e610f57565b6040518080602001828103825283818151815260200191508051906020019060200280838360005b838110156102b1578082015181840152602081019050610296565b505050509050019250505060405180910390f35b34156102d057600080fd5b6102d8611046565b6040518080602001828103825283818151815260200191508051906020019060200280838360005b8381101561031b578082015181840152602081019050610300565b505050509050019250505060405180910390f35b341561033a57600080fd5b61035d6004808035600019169060200190919080359060200190919050506110da565b60405180831515151581526020018281526020019250505060405180910390f35b341561038957600080fd5b61039f6004808035906020019091905050611268565b604051808215151515815260200191505060405180910390f35b34156103c457600080fd5b610476600480803573ffffffffffffffffffffffffffffffffffffffff1690602001909190803590602001908201803590602001908080601f0160208091040260200160405190810160405280939291908181526020018383808284378201915050505050509190803590602001908201803590602001908080601f016020809104026020016040519081016040528093929190818152602001838380828437820191505050505050919050506113b7565b604051808215151515815260200191505060405180910390f35b341561049b57600080fd5b6104c7600480803573ffffffffffffffffffffffffffffffffffffffff16906020019091905050611655565b604051808773ffffffffffffffffffffffffffffffffffffffff1673ffffffffffffffffffffffffffffffffffffffff168152602001806020018060200180602001806020018615151515815260200185810385528a818151815260200191508051906020019080838360005b8381101561054f578082015181840152602081019050610534565b50505050905090810190601f16801561057c5780820380516001836020036101000a031916815260200191505b50858103845289818151815260200191508051906020019080838360005b838110156105b557808201518184015260208101905061059a565b50505050905090810190601f1680156105e25780820380516001836020036101000a031916815260200191505b50858103835288818151815260200191508051906020019080838360005b8381101561061b578082015181840152602081019050610600565b50505050905090810190601f1680156106485780820380516001836020036101000a031916815260200191505b50858103825287818151815260200191508051906020019080838360005b83811015610681578082015181840152602081019050610666565b50505050905090810190601f1680156106ae5780820380516001836020036101000a031916815260200191505b509a505050505050505050505060405180910390f35b34156106cf57600080fd5b6106d7611b43565b6040518080602001828103825283818151815260200191508051906020019060200280838360005b8381101561071a5780820151818401526020810190506106ff565b505050509050019250505060405180910390f35b341561073957600080fd5b610741611bd7565b6040518080602001828103825283818151815260200191508051906020019060200280838360005b83811015610784578082015181840152602081019050610769565b505050509050019250505060405180910390f35b34156107a357600080fd5b6107b96004808035906020019091905050611cf3565b60405180826000191660001916815260200191505060405180910390f35b34156107e257600080fd5b6107f86004808035906020019091905050611d17565b604051808273ffffffffffffffffffffffffffffffffffffffff1673ffffffffffffffffffffffffffffffffffffffff16815260200191505060405180910390f35b341561084557600080fd5b61084d611d56565b6040518082815260200191505060405180910390f35b341561086e57600080fd5b6108dd600480803573ffffffffffffffffffffffffffffffffffffffff1690602001909190803590602001908201803590602001908080601f01602080910402602001604051908101604052809392919081815260200183838082843782019150505050505091905050611e27565b604051808215151515815260200191505060405180910390f35b341561090257600080fd5b6109186004808035906020019091905050612251565b604051808273ffffffffffffffffffffffffffffffffffffffff1673ffffffffffffffffffffffffffffffffffffffff16815260200191505060405180910390f35b341561096557600080fd5b6109bd60048080356000191690602001909190803573ffffffffffffffffffffffffffffffffffffffff1690602001909190803573ffffffffffffffffffffffffffffffffffffffff16906020019091905050612290565b604051808215151515815260200191505060405180910390f35b34156109e257600080fd5b6109fc600480803560001916906020019091905050612495565b604051808215151515815260200191505060405180910390f35b3415610a2157600080fd5b610a376004808035906020019091905050612683565b604051808215151515815260200191505060405180910390f35b3415610a5c57600080fd5b610acb600480803573ffffffffffffffffffffffffffffffffffffffff1690602001909190803590602001908201803590602001908080601f016020809104026020016040519081016040528093929190818152602001838380828437820191505050505050919050506127d2565b604051808215151515815260200191505060405180910390f35b3415610af057600080fd5b610b066004808035906020019091905050612a05565b604051808215151515815260200191505060405180910390f35b3415610b2b57600080fd5b610b57600480803573ffffffffffffffffffffffffffffffffffffffff16906020019091905050612b54565b604051808573ffffffffffffffffffffffffffffffffffffffff1673ffffffffffffffffffffffffffffffffffffffff168152602001806020018060200184151515158152602001838103835286818151815260200191508051906020019080838360005b83811015610bd7578082015181840152602081019050610bbc565b50505050905090810190601f168015610c045780820380516001836020036101000a031916815260200191505b50838103825285818151815260200191508051906020019080838360005b83811015610c3d578082015181840152602081019050610c22565b50505050905090810190601f168015610c6a5780820380516001836020036101000a031916815260200191505b50965050505050505060405180910390f35b3415610c8757600080fd5b610c8f612e70565b6040518082815260200191505060405180910390f35b3415610cb057600080fd5b610d62600480803573ffffffffffffffffffffffffffffffffffffffff1690602001909190803590602001908201803590602001908080601f0160208091040260200160405190810160405280939291908181526020018383808284378201915050505050509190803590602001908201803590602001908080601f01602080910402602001604051908101604052809392919081815260200183838082843782019150505050505091905050612e76565b604051808215151515815260200191505060405180910390f35b3415610d8757600080fd5b610db3600480803573ffffffffffffffffffffffffffffffffffffffff16906020019091905050613387565b604051808215151515815260200191505060405180910390f35b60055481565b6000838060001916600c600083600019166000191681526020019081526020016000206000015460001916141515610e0a57600080fd5b83600c600087600019166000191681526020019081526020016000206003018190555082600c6000876000191660001916815260200190815260200160002060040181905550600754830260065485026005540101600c60008760001916600019168152602001908152602001600020600501819055506040805190810160405280600a81526020017f696e70726f677265737300000000000000000000000000000000000000000000815250600c600087600019166000191681526020019081526020016000206006019080519060200190610ee89291906134fe565b50600c60008660001916600019168152602001908152602001600020600501549150509392505050565b600281815481101515610f2157fe5b90600052602060002090016000915054906101000a900473ffffffffffffffffffffffffffffffffffffffff1681565b60065481565b610f5f61357e565b6000809054906101000a900473ffffffffffffffffffffffffffffffffffffffff1673ffffffffffffffffffffffffffffffffffffffff163373ffffffffffffffffffffffffffffffffffffffff16141515610fba57600080fd5b600280548060200260200160405190810160405280929190818152602001828054801561103c57602002820191906000526020600020905b8160009054906101000a900473ffffffffffffffffffffffffffffffffffffffff1673ffffffffffffffffffffffffffffffffffffffff1681526020019060010190808311610ff2575b5050505050905090565b61104e61357e565b60098054806020026020016040519081016040528092919081815260200182805480156110d057602002820191906000526020600020905b8160009054906101000a900473ffffffffffffffffffffffffffffffffffffffff1673ffffffffffffffffffffffffffffffffffffffff1681526020019060010190808311611086575b5050505050905090565b6000806000848060001916600c60008360001916600019168152602001908152602001600020600001546000191614151561111457600080fd5b84600c6000886000191660001916815260200190815260200160002060050154111561113f57600080fd5b84600c60008860001916600019168152602001908152602001600020600501540391506040805190810160405280600981526020017f636f6d706c657465640000000000000000000000000000000000000000000000815250600c6000886000191660001916815260200190815260200160002060060190805190602001906111c99291906134fe565b508460086000600c60008a6000191660001916815260200190815260200160002060010160009054906101000a900473ffffffffffffffffffffffffffffffffffffffff1673ffffffffffffffffffffffffffffffffffffffff1673ffffffffffffffffffffffffffffffffffffffff168152602001908152602001600020600501600082825401925050819055506001829350935050509250929050565b600080600160003373ffffffffffffffffffffffffffffffffffffffff1673ffffffffffffffffffffffffffffffffffffffff16815260200190815260200160002060000160009054906101000a900473ffffffffffffffffffffffffffffffffffffffff1673ffffffffffffffffffffffffffffffffffffffff16141515156112f157600080fd5b7f6febc285419d58ea53ae8f3d8781d649b2c02d85cb29f54722cfdf676f26a06f336006548442604051808573ffffffffffffffffffffffffffffffffffffffff1673ffffffffffffffffffffffffffffffffffffffff16815260200180602001858152602001848152602001838152602001828103825260148152602001807f5570646174656420507269636520706572204b4d0000000000000000000000008152506020019550505050505060405180910390a18160068190555060019050919050565b600080600160003373ffffffffffffffffffffffffffffffffffffffff1673ffffffffffffffffffffffffffffffffffffffff16815260200190815260200160002060000160009054906101000a900473ffffffffffffffffffffffffffffffffffffffff1673ffffffffffffffffffffffffffffffffffffffff161415151561144057600080fd5b836000600a60008373ffffffffffffffffffffffffffffffffffffffff1673ffffffffffffffffffffffffffffffffffffffff16815260200190815260200160002060000160009054906101000a900473ffffffffffffffffffffffffffffffffffffffff1673ffffffffffffffffffffffffffffffffffffffff161415156114c857600080fd5b6080604051908101604052808673ffffffffffffffffffffffffffffffffffffffff16815260200185815260200184815260200160001515815250600a60008773ffffffffffffffffffffffffffffffffffffffff1673ffffffffffffffffffffffffffffffffffffffff16815260200190815260200160002060008201518160000160006101000a81548173ffffffffffffffffffffffffffffffffffffffff021916908373ffffffffffffffffffffffffffffffffffffffff16021790555060208201518160010190805190602001906115a5929190613592565b5060408201518160020190805190602001906115c2929190613592565b5060608201518160030160006101000a81548160ff021916908315150217905550905050600b80548060010182816115fa9190613612565b9160005260206000209001600087909190916101000a81548173ffffffffffffffffffffffffffffffffffffffff021916908373ffffffffffffffffffffffffffffffffffffffff1602179055505060019150509392505050565b600061165f61363e565b61166761363e565b61166f61363e565b61167761363e565b6000866000600860008373ffffffffffffffffffffffffffffffffffffffff1673ffffffffffffffffffffffffffffffffffffffff16815260200190815260200160002060000160009054906101000a900473ffffffffffffffffffffffffffffffffffffffff1673ffffffffffffffffffffffffffffffffffffffff161415151561170257600080fd5b600860008973ffffffffffffffffffffffffffffffffffffffff1673ffffffffffffffffffffffffffffffffffffffff16815260200190815260200160002060000160009054906101000a900473ffffffffffffffffffffffffffffffffffffffff16600860008a73ffffffffffffffffffffffffffffffffffffffff1673ffffffffffffffffffffffffffffffffffffffff168152602001908152602001600020600101600860008b73ffffffffffffffffffffffffffffffffffffffff1673ffffffffffffffffffffffffffffffffffffffff168152602001908152602001600020600201600860008c73ffffffffffffffffffffffffffffffffffffffff1673ffffffffffffffffffffffffffffffffffffffff168152602001908152602001600020600301600860008d73ffffffffffffffffffffffffffffffffffffffff1673ffffffffffffffffffffffffffffffffffffffff168152602001908152602001600020600401600860008e73ffffffffffffffffffffffffffffffffffffffff1673ffffffffffffffffffffffffffffffffffffffff16815260200190815260200160002060060160009054906101000a900460ff16848054600181600116156101000203166002900480601f0160208091040260200160405190810160405280929190818152602001828054600181600116156101000203166002900480156119525780601f1061192757610100808354040283529160200191611952565b820191906000526020600020905b81548152906001019060200180831161193557829003601f168201915b50505050509450838054600181600116156101000203166002900480601f0160208091040260200160405190810160405280929190818152602001828054600181600116156101000203166002900480156119ee5780601f106119c3576101008083540402835291602001916119ee565b820191906000526020600020905b8154815290600101906020018083116119d157829003601f168201915b50505050509350828054600181600116156101000203166002900480601f016020809104026020016040519081016040528092919081815260200182805460018160011615610100020316600290048015611a8a5780601f10611a5f57610100808354040283529160200191611a8a565b820191906000526020600020905b815481529060010190602001808311611a6d57829003601f168201915b50505050509250818054600181600116156101000203166002900480601f016020809104026020016040519081016040528092919081815260200182805460018160011615610100020316600290048015611b265780601f10611afb57610100808354040283529160200191611b26565b820191906000526020600020905b815481529060010190602001808311611b0957829003601f168201915b505050505091509650965096509650965096505091939550919395565b611b4b61357e565b600b805480602002602001604051908101604052809291908181526020018280548015611bcd57602002820191906000526020600020905b8160009054906101000a900473ffffffffffffffffffffffffffffffffffffffff1673ffffffffffffffffffffffffffffffffffffffff1681526020019060010190808311611b83575b5050505050905090565b611bdf61357e565b6000600160003373ffffffffffffffffffffffffffffffffffffffff1673ffffffffffffffffffffffffffffffffffffffff16815260200190815260200160002060000160009054906101000a900473ffffffffffffffffffffffffffffffffffffffff1673ffffffffffffffffffffffffffffffffffffffff1614151515611c6757600080fd5b6004805480602002602001604051908101604052809291908181526020018280548015611ce957602002820191906000526020600020905b8160009054906101000a900473ffffffffffffffffffffffffffffffffffffffff1673ffffffffffffffffffffffffffffffffffffffff1681526020019060010190808311611c9f575b5050505050905090565b600d81815481101515611d0257fe5b90600052602060002090016000915090505481565b600481815481101515611d2657fe5b90600052602060002090016000915054906101000a900473ffffffffffffffffffffffffffffffffffffffff1681565b600080600860003373ffffffffffffffffffffffffffffffffffffffff1673ffffffffffffffffffffffffffffffffffffffff16815260200190815260200160002060000160009054906101000a900473ffffffffffffffffffffffffffffffffffffffff1673ffffffffffffffffffffffffffffffffffffffff1614151515611ddf57600080fd5b600860003373ffffffffffffffffffffffffffffffffffffffff1673ffffffffffffffffffffffffffffffffffffffff16815260200190815260200160002060050154905090565b600080600160003373ffffffffffffffffffffffffffffffffffffffff1673ffffffffffffffffffffffffffffffffffffffff16815260200190815260200160002060000160009054906101000a900473ffffffffffffffffffffffffffffffffffffffff1673ffffffffffffffffffffffffffffffffffffffff1614151515611eb057600080fd5b6000600360008573ffffffffffffffffffffffffffffffffffffffff1673ffffffffffffffffffffffffffffffffffffffff16815260200190815260200160002060000160009054906101000a900473ffffffffffffffffffffffffffffffffffffffff1673ffffffffffffffffffffffffffffffffffffffff16141515611f3757600080fd5b6080604051908101604052808473ffffffffffffffffffffffffffffffffffffffff168152602001838152602001600160003373ffffffffffffffffffffffffffffffffffffffff1673ffffffffffffffffffffffffffffffffffffffff168152602001908152602001600020606060405190810160405290816000820160009054906101000a900473ffffffffffffffffffffffffffffffffffffffff1673ffffffffffffffffffffffffffffffffffffffff1673ffffffffffffffffffffffffffffffffffffffff168152602001600182018054600181600116156101000203166002900480601f01602080910402602001604051908101604052809291908181526020018280546001816001161561010002031660029004801561209f5780601f106120745761010080835404028352916020019161209f565b820191906000526020600020905b81548152906001019060200180831161208257829003601f168201915b50505050508152602001600282015481525050815260200142815250600360008573ffffffffffffffffffffffffffffffffffffffff1673ffffffffffffffffffffffffffffffffffffffff16815260200190815260200160002060008201518160000160006101000a81548173ffffffffffffffffffffffffffffffffffffffff021916908373ffffffffffffffffffffffffffffffffffffffff160217905550602082015181600101908051906020019061215d929190613592565b5060408201518160020160008201518160000160006101000a81548173ffffffffffffffffffffffffffffffffffffffff021916908373ffffffffffffffffffffffffffffffffffffffff16021790555060208201518160010190805190602001906121ca929190613592565b5060408201518160020155505060608201518160050155905050600480548060010182816121f89190613612565b9160005260206000209001600085909190916101000a81548173ffffffffffffffffffffffffffffffffffffffff021916908373ffffffffffffffffffffffffffffffffffffffff160217905550506001905092915050565b60098181548110151561226057fe5b90600052602060002090016000915054906101000a900473ffffffffffffffffffffffffffffffffffffffff1681565b6000838060001916600c6000836000191660001916815260200190815260200160002060000154600019161415156122c757600080fd5b60e060405190810160405280866000191681526020018573ffffffffffffffffffffffffffffffffffffffff1681526020018473ffffffffffffffffffffffffffffffffffffffff1681526020016000815260200160008152602001600081526020016040805190810160405280600b81526020017f696e697469616c697a6564000000000000000000000000000000000000000000815250815250600c600087600019166000191681526020019081526020016000206000820151816000019060001916905560208201518160010160006101000a81548173ffffffffffffffffffffffffffffffffffffffff021916908373ffffffffffffffffffffffffffffffffffffffff16021790555060408201518160020160006101000a81548173ffffffffffffffffffffffffffffffffffffffff021916908373ffffffffffffffffffffffffffffffffffffffff160217905550606082015181600301556080820151816004015560a0820151816005015560c0820151816006019080519060200190612456929190613592565b50905050600d805480600101828161246e9190613652565b91600052602060002090016000879091909150906000191690555060019150509392505050565b6000818060001916600c6000836000191660001916815260200190815260200160002060000154600019161415156124cc57600080fd5b823373ffffffffffffffffffffffffffffffffffffffff16600c6000836000191660001916815260200190815260200160002060010160009054906101000a900473ffffffffffffffffffffffffffffffffffffffff1673ffffffffffffffffffffffffffffffffffffffff1614806125ae57503373ffffffffffffffffffffffffffffffffffffffff16600c6000836000191660001916815260200190815260200160002060020160009054906101000a900473ffffffffffffffffffffffffffffffffffffffff1673ffffffffffffffffffffffffffffffffffffffff16145b8061260557503373ffffffffffffffffffffffffffffffffffffffff166000809054906101000a900473ffffffffffffffffffffffffffffffffffffffff1673ffffffffffffffffffffffffffffffffffffffff16145b151561261057600080fd5b6040805190810160405280600981526020017f63616e63656c6c65640000000000000000000000000000000000000000000000815250600c6000866000191660001916815260200190815260200160002060060190805190602001906126779291906134fe565b50600192505050919050565b600080600160003373ffffffffffffffffffffffffffffffffffffffff1673ffffffffffffffffffffffffffffffffffffffff16815260200190815260200160002060000160009054906101000a900473ffffffffffffffffffffffffffffffffffffffff1673ffffffffffffffffffffffffffffffffffffffff161415151561270c57600080fd5b7f6febc285419d58ea53ae8f3d8781d649b2c02d85cb29f54722cfdf676f26a06f336005548442604051808573ffffffffffffffffffffffffffffffffffffffff1673ffffffffffffffffffffffffffffffffffffffff16815260200180602001858152602001848152602001838152602001828103825260118152602001807f55706461746564204261736520466172650000000000000000000000000000008152506020019550505050505060405180910390a18160058190555060019050919050565b60008060009054906101000a900473ffffffffffffffffffffffffffffffffffffffff1673ffffffffffffffffffffffffffffffffffffffff163373ffffffffffffffffffffffffffffffffffffffff1614151561282f57600080fd5b6000600160008573ffffffffffffffffffffffffffffffffffffffff1673ffffffffffffffffffffffffffffffffffffffff16815260200190815260200160002060000160009054906101000a900473ffffffffffffffffffffffffffffffffffffffff1673ffffffffffffffffffffffffffffffffffffffff161415156128b657600080fd5b6060604051908101604052808473ffffffffffffffffffffffffffffffffffffffff16815260200183815260200142815250600160008573ffffffffffffffffffffffffffffffffffffffff1673ffffffffffffffffffffffffffffffffffffffff16815260200190815260200160002060008201518160000160006101000a81548173ffffffffffffffffffffffffffffffffffffffff021916908373ffffffffffffffffffffffffffffffffffffffff160217905550602082015181600101908051906020019061298a929190613592565b5060408201518160020155905050600280548060010182816129ac9190613612565b9160005260206000209001600085909190916101000a81548173ffffffffffffffffffffffffffffffffffffffff021916908373ffffffffffffffffffffffffffffffffffffffff160217905550506001905092915050565b600080600160003373ffffffffffffffffffffffffffffffffffffffff1673ffffffffffffffffffffffffffffffffffffffff16815260200190815260200160002060000160009054906101000a900473ffffffffffffffffffffffffffffffffffffffff1673ffffffffffffffffffffffffffffffffffffffff1614151515612a8e57600080fd5b7f6febc285419d58ea53ae8f3d8781d649b2c02d85cb29f54722cfdf676f26a06f336007548442604051808573ffffffffffffffffffffffffffffffffffffffff1673ffffffffffffffffffffffffffffffffffffffff16815260200180602001858152602001848152602001838152602001828103825260188152602001807f5570646174656420507269636520706572204d696e75746500000000000000008152506020019550505050505060405180910390a18160078190555060019050919050565b6000612b5e61363e565b612b6661363e565b6000846000600a60008373ffffffffffffffffffffffffffffffffffffffff1673ffffffffffffffffffffffffffffffffffffffff16815260200190815260200160002060000160009054906101000a900473ffffffffffffffffffffffffffffffffffffffff1673ffffffffffffffffffffffffffffffffffffffff1614151515612bf157600080fd5b600a60008773ffffffffffffffffffffffffffffffffffffffff1673ffffffffffffffffffffffffffffffffffffffff16815260200190815260200160002060000160009054906101000a900473ffffffffffffffffffffffffffffffffffffffff16600a60008873ffffffffffffffffffffffffffffffffffffffff1673ffffffffffffffffffffffffffffffffffffffff168152602001908152602001600020600101600a60008973ffffffffffffffffffffffffffffffffffffffff1673ffffffffffffffffffffffffffffffffffffffff168152602001908152602001600020600201600a60008a73ffffffffffffffffffffffffffffffffffffffff1673ffffffffffffffffffffffffffffffffffffffff16815260200190815260200160002060030160009054906101000a900460ff16828054600181600116156101000203166002900480601f016020809104026020016040519081016040528092919081815260200182805460018160011615610100020316600290048015612dbd5780601f10612d9257610100808354040283529160200191612dbd565b820191906000526020600020905b815481529060010190602001808311612da057829003601f168201915b50505050509250818054600181600116156101000203166002900480601f016020809104026020016040519081016040528092919081815260200182805460018160011615610100020316600290048015612e595780601f10612e2e57610100808354040283529160200191612e59565b820191906000526020600020905b815481529060010190602001808311612e3c57829003601f168201915b505050505091509450945094509450509193509193565b60075481565b600080600160003373ffffffffffffffffffffffffffffffffffffffff1673ffffffffffffffffffffffffffffffffffffffff16815260200190815260200160002060000160009054906101000a900473ffffffffffffffffffffffffffffffffffffffff1673ffffffffffffffffffffffffffffffffffffffff1614151515612eff57600080fd5b836000600860008373ffffffffffffffffffffffffffffffffffffffff1673ffffffffffffffffffffffffffffffffffffffff16815260200190815260200160002060000160009054906101000a900473ffffffffffffffffffffffffffffffffffffffff1673ffffffffffffffffffffffffffffffffffffffff16141515612f8757600080fd5b60e0604051908101604052808673ffffffffffffffffffffffffffffffffffffffff1681526020018581526020018481526020016040805190810160405280600181526020017f300000000000000000000000000000000000000000000000000000000000000081525081526020016040805190810160405280600181526020017f300000000000000000000000000000000000000000000000000000000000000081525081526020016000815260200160001515815250600860008773ffffffffffffffffffffffffffffffffffffffff1673ffffffffffffffffffffffffffffffffffffffff16815260200190815260200160002060008201518160000160006101000a81548173ffffffffffffffffffffffffffffffffffffffff021916908373ffffffffffffffffffffffffffffffffffffffff16021790555060208201518160010190805190602001906130e1929190613592565b5060408201518160020190805190602001906130fe929190613592565b50606082015181600301908051906020019061311b929190613592565b506080820151816004019080519060200190613138929190613592565b5060a0820151816005015560c08201518160060160006101000a81548160ff0219169083151502179055509050506009805480600101828161317a9190613612565b9160005260206000209001600087909190916101000a81548173ffffffffffffffffffffffffffffffffffffffff021916908373ffffffffffffffffffffffffffffffffffffffff160217905550507f47fe05668ba03c3712d11418ac164f46e5822a19472bdb1de5da5589aedebe5e3386868642604051808673ffffffffffffffffffffffffffffffffffffffff1673ffffffffffffffffffffffffffffffffffffffff168152602001806020018673ffffffffffffffffffffffffffffffffffffffff1673ffffffffffffffffffffffffffffffffffffffff16815260200180602001806020018581526020018481038452600c8152602001807f4164646564204472697665720000000000000000000000000000000000000000815250602001848103835287818151815260200191508051906020019080838360005b838110156132d55780820151818401526020810190506132ba565b50505050905090810190601f1680156133025780820380516001836020036101000a031916815260200191505b50848103825286818151815260200191508051906020019080838360005b8381101561333b578082015181840152602081019050613320565b50505050905090810190601f1680156133685780820380516001836020036101000a031916815260200191505b509850505050505050505060405180910390a160019150509392505050565b600080600160003373ffffffffffffffffffffffffffffffffffffffff1673ffffffffffffffffffffffffffffffffffffffff16815260200190815260200160002060000160009054906101000a900473ffffffffffffffffffffffffffffffffffffffff1673ffffffffffffffffffffffffffffffffffffffff161415151561341057600080fd5b816000600860008373ffffffffffffffffffffffffffffffffffffffff1673ffffffffffffffffffffffffffffffffffffffff16815260200190815260200160002060000160009054906101000a900473ffffffffffffffffffffffffffffffffffffffff1673ffffffffffffffffffffffffffffffffffffffff161415151561349957600080fd5b6001600860008573ffffffffffffffffffffffffffffffffffffffff1673ffffffffffffffffffffffffffffffffffffffff16815260200190815260200160002060060160006101000a81548160ff0219169083151502179055506001915050919050565b828054600181600116156101000203166002900490600052602060002090601f016020900481019282601f1061353f57805160ff191683800117855561356d565b8280016001018555821561356d579182015b8281111561356c578251825591602001919060010190613551565b5b50905061357a919061367e565b5090565b602060405190810160405280600081525090565b828054600181600116156101000203166002900490600052602060002090601f016020900481019282601f106135d357805160ff1916838001178555613601565b82800160010185558215613601579182015b828111156136005782518255916020019190600101906135e5565b5b50905061360e919061367e565b5090565b81548183558181151161363957818360005260206000209182019101613638919061367e565b5b505050565b602060405190810160405280600081525090565b8154818355818115116136795781836000526020600020918201910161367891906136a3565b5b505050565b6136a091905b8082111561369c576000816000905550600101613684565b5090565b90565b6136c591905b808211156136c15760008160009055506001016136a9565b5090565b905600a165627a7a72305820fecbac2b7c42b4b4b89617ee2d3435e1f2c123225a0bc693cf8e56952089e88d0029",
  "source": "pragma solidity ^0.4.17;\n\ncontract Dryb {\n\n  // the owner can add multiple admin\n  // the admin can add multiple approver\n  address owner;\n\n  struct Admin {\n    address _address;\n    string name;\n    uint256 addedAt;\n  }\n\n  struct Approver {\n    address _address;\n    string name;\n    Admin addedBy;\n    uint256 addedAt;\n  }\n\n  mapping(address => Admin) admins;\n  address[] public adminList;\n\n  mapping(address => Approver) approvers;\n  address[] public approverList;\n\n\n  uint public baseFare;\n  uint public pricePerKm;\n  uint public pricePerMinute;\n\n  enum RideType { Taxi, Regular, Premium, Premium6Plus, ExpressVan, Bus, Tricycle, Motorcycle, Delivery }\n  enum RideStatus { Requested, PickUp, InTransit, CancelledByDriver, CancelledByPassenger, Completed }\n\n  struct Fare {\n    bytes32 _id;\n    RideType rideType;\n    uint256 baseFare;\n    uint256 perDistance;\n    uint256 perTime;\n    uint256 perWaitingTime;\n    uint256 specialDiscount;\n  }\n\n  struct Driver {\n    address _address;\n    string firstname;\n    string lastname;\n    string longitude;\n    string latitude;\n    uint256 earnings;\n    bool isVerified;\n  }\n\n  mapping(address => Driver) drivers;\n  address[] public driverList;\n\n  struct Passenger {\n    address _address;\n    string name;\n    string mobile;\n    bool isActive;\n  }\n\n  mapping(address => Passenger) passengers;\n  address[] passengerList;\n\n  struct Ride {\n    bytes32 _id;\n    address driver;\n    address passenger;\n    uint256 distance;\n    uint256 time;\n    uint256 price;\n    string status;\n  }\n\n  mapping(bytes32 => Ride) rides;\n  bytes32[] public rideList;\n\n  /*\n    ====================\n    ===== EVENTS =======\n    ====================\n  */\n  event FareChanged(address admin, string message, uint256 from, uint256 to, uint256 date);\n  event DriverAdded(address, string, address, string, string, uint256);\n\n\n  /*\n    ==========================\n    =======  MODIFIERS =======\n    ==========================\n  */\n\n  modifier isOwner() {\n     require(msg.sender == owner);\n     _;\n  }\n\n  modifier isAdmin() {\n    require(admins[msg.sender]._address != 0x0);\n    _;\n  }\n\n  modifier isApprover() {\n    require(approvers[msg.sender]._address != 0x0);\n    _;\n  }\n\n  modifier isAdminisitrativeUser() {\n    require(approvers[msg.sender]._address != 0x0 || admins[msg.sender]._address != 0x0 || owner == msg.sender);\n    _;\n  }\n\n  modifier isDriver() {\n    require(drivers[msg.sender]._address != 0x0);\n    _;\n  }\n\n  modifier diverNotExist(address _address) {\n    if (drivers[_address]._address != 0x0) revert();\n    _;\n  }\n\n  modifier driverExist(address _address) {\n    require(drivers[_address]._address != 0x0);\n    _;\n  }\n\n  modifier passengerNotExist(address _address) {\n    if (passengers[_address]._address != 0x0) revert();\n    _;\n  }\n\n  modifier passengerExist(address _address) {\n    require(passengers[_address]._address != 0x0);\n    _;\n  }\n\n  modifier rideExist(bytes32 rideId) {\n    require(rides[rideId]._id == rideId);\n    _;\n  }\n\n  modifier rideNotExist(bytes32 rideId) {\n    if (rides[rideId]._id != rideId) revert();\n    _;\n  }\n\n  modifier rideUsers(bytes32 rideId) {\n    require(rides[rideId].driver == msg.sender || rides[rideId].passenger == msg.sender || owner == msg.sender);\n    _;\n  }\n\n  modifier isRidePassenger(bytes32 rideId) {\n    require(rides[rideId].passenger == msg.sender);\n    _;\n  }\n\n  modifier isRideDriver(bytes32 rideId) {\n    require(rides[rideId].driver == msg.sender);\n    _;\n  }\n\n\n  /*\n    ==========================\n    ======  CONSTRUCTOR ======\n    ==========================\n  */\n\n  function Dryb() public {\n    owner = msg.sender;\n    baseFare = 25;\n    pricePerKm = 5;\n    pricePerMinute = 2;\n    admins[owner] = Admin(owner, 'Admin', now);\n    adminList.push(owner);\n  }\n\n\n  /*\n    ==========================\n    =======  METHODS =========\n    ==========================\n  */\n\n  // // // // // // // //\n  // Admin Management //\n  // // // // // // //\n\n  function addAdmin(address _address, string name) public isOwner returns (bool success) {\n    require(admins[_address]._address == 0x0);\n    admins[_address] = Admin(_address, name, now);\n    adminList.push(_address);\n    return true;\n  }\n\n  function getAdmins() constant public isOwner returns (address[]) {\n    return adminList;\n  }\n\n  function addApprover(address _address, string name) public isAdmin returns (bool success) {\n    require(approvers[_address]._address == 0x0);\n    approvers[_address] = Approver(_address, name, admins[msg.sender], now);\n    approverList.push(_address);\n    return true;\n  }\n\n  function getApprovers() public constant isAdmin returns (address[]) {\n    return approverList;\n  }\n\n  // // // // // // // //\n  // Fare management  //\n  // // // // // // //\n\n  function setBaseFare(uint256 fare) public isAdmin returns (bool success) {\n    FareChanged(msg.sender, 'Updated Base Fare', baseFare, fare, now);\n    baseFare = fare;\n    return true;\n  }\n\n  function setPricePerMinute(uint256 price) public isAdmin returns (bool success) {\n    FareChanged(msg.sender, 'Updated Price per Minute', pricePerMinute, price, now);\n    pricePerMinute = price;\n    return true;\n  }\n\n  function setPricePerKM(uint256 price) public isAdmin returns (bool success) {\n    FareChanged(msg.sender, 'Updated Price per KM', pricePerKm, price, now);\n    pricePerKm = price;\n    return true;\n  }\n\n  // // // // // // // //\n  // Driver Management //\n  // // // // // // // //\n\n  function addDriver(address driverAddress, string firstname, string lastname) public isAdmin diverNotExist(driverAddress) returns (bool success) {\n    drivers[driverAddress] = Driver(driverAddress, firstname, lastname, '0', '0', 0, false);\n    driverList.push(driverAddress);\n    DriverAdded(msg.sender, 'Added Driver', driverAddress, firstname, lastname, now);\n    return true;\n  }\n\n  function verifyDriver(address driverAddress) public isAdmin driverExist(driverAddress) returns (bool success) {\n    drivers[driverAddress].isVerified = true;\n    return true;\n  }\n\n  function getDriver(address _address) public constant driverExist(_address) returns(address, string, string, string, string, bool) {\n    return (drivers[_address]._address, drivers[_address].firstname, drivers[_address].lastname,drivers[_address].longitude, drivers[_address].latitude, drivers[_address].isVerified);\n  }\n\n  function getDrivers() public constant returns (address[]) {\n    return driverList;\n  }\n\n  function getEarnings() public constant isDriver returns (uint256) {\n    return drivers[msg.sender].earnings;\n  }\n\n  // // // // // // // // //\n  // Passenger Management //\n  // // // // // // // // //\n\n  function addPassenger(address _address, string name, string mobile) public isAdmin passengerNotExist(_address) returns (bool success) {\n    passengers[_address] = Passenger(_address, name, mobile, false);\n    passengerList.push(_address);\n    return true;\n  }\n\n  function getPassenger(address _address) public constant passengerExist(_address) returns (address, string, string, bool) {\n    return (passengers[_address]._address, passengers[_address].name, passengers[_address].mobile, passengers[_address].isActive);\n  }\n\n  function getPassengers() public constant returns (address[]) {\n    return passengerList;\n  }\n\n  // // // // // // // //\n  // Ride Management //\n  // // // // // // //\n\n  function createRide(bytes32 rideId, address driver, address passenger) public rideNotExist(rideId) returns (bool success) {\n    rides[rideId] = Ride(rideId, driver, passenger, 0, 0, 0, 'initialized');\n    rideList.push(rideId);\n    return true;\n  }\n\n  function computeFare(bytes32 rideId ,uint256 distance, uint256 time) public rideExist(rideId) returns(uint256 fare) {\n    rides[rideId].distance = distance;\n    rides[rideId].time = time;\n    rides[rideId].price = baseFare + (distance * pricePerKm) + (time * pricePerMinute);\n    rides[rideId].status = 'inprogress';\n    return rides[rideId].price;\n  }\n\n  function cancelRide(bytes32 rideId) public rideExist(rideId) rideUsers(rideId) returns (bool success) {\n    rides[rideId].status = 'cancelled';\n    return true;\n  }\n\n  function payRide(bytes32 rideId, uint256 price) public rideExist(rideId) returns (bool success, uint256 change) {\n    if (rides[rideId].price > price) {\n      revert();\n    }\n    uint256 _change = rides[rideId].price - price;\n    rides[rideId].status = 'completed';\n    drivers[rides[rideId].driver].earnings += price;\n    return (true, _change);\n  }\n\n}\n",
  "sourcePath": "/Users/isaac/ZendCreative/Dryb/Truffle/Dryb/contracts/Dryb.sol",
  "compiler": {
    "name": "solc",
    "version": "0.4.19+commit.c4cbbb05.Emscripten.clang"
  },
  "schemaVersion": "1.0.1",
  "updatedAt": "2018-02-24T14:40:51.536Z"
}